:020000022000DC
:1070000000A20020A59403006FA004009194030047
:1070100091940300919403009194030000000000F8
:107020000000000000000000000000004D9603007A
:107030009194030000000000AD95030091940300BB
:107040002D99030059C704002D9903002D990300C1
:107050002D9903002D9903002D9903002D9903000C
:107060000FC704002D9903002D99030043C70400A6
:107070002D9903002D9903002D9903002D990300EC
:107080002D9903002D9903002D9903002D990300DC
:107090002D9903002D9903002D9903002D990300CC
:1070A0002D9903002D9903002D9903002D990300BC
:1070B0002D9903002D9903002D9903002D990300AC
:1070C0002D9903002D9903002D9903002D9903009C
:1070D0002D9903002D9903002D9903002D9903008C
:1070E0002D9903002D9903002D9903002D9903007C
:1070F0002D9903002D9903002D9903002D9903006C
:10710000064B074A5B7802604FF41C728280C371A1
:107110000822002382710372704700BF800B002099
:10712000D7580300064B074A9B7802604FF49072D1
:107130008280C3710822FF2382710372704700BFEF
:10714000800B002045540300F8B5C41D002824F02E
:107150000704054614BF2046002000F041FB061E30
:1071600002DA6FF00B00F8BD0DB9F442F9D4294FE3
:107170003989F888FB7ABA7A0331033089B280B250
:107180000BF01EFF0028ECDB39787B7826440336B1
:10719000002D194426F0030600FB01F114BF304610
:1071A000002000F0A9FC30440DB90028D9DBBA78E2
:1071B0000346B2B1F97CFB7811441944FF29D0DCB5
:1071C0000330002D20F0030414BF20460020FA896C
:1071D000C9B200F001FD031EC3DB23440DB9002B2F
:1071E000BFDB397C81B1BA7872B10733002D23F04F
:1071F000070414BF2046002004F06EF8031EB0DB25
:1072000023440DB9002BACDB002D0CBF1846002029
:10721000A9E700BF800B00201FB572B6184BDD6ACE
:10722000E5B9BFF34F8F1749174BCA6802F4E06204
:107230001343CB60BFF34F8F00BFFDE7B2FBF6F205
:10724000DCB20133002AF9D104F110036B4403F8D6
:107250000C2C0A2234B901A8A847E2E70246002311
:107260000A26EDE7631E04AEDCB256FA83F3B0FBE8
:10727000F2F602FB1600303003F80C0C3046E9E75A
:10728000800B002000ED00E00400FA0507B50C4B70
:10729000DA7A8DF801209A7A8DF8002068461A89EA
:1072A000DB88ADF80420ADF8023002F089FB18B19C
:1072B000DB210320FFF7B0FF03B05DF804FB00BF44
:1072C000800B002038B5054668B30AF01FF910B9E5
:1072D0004FF0FF3038BD07F075FBB0F5FA7FF7D8F7
:1072E000134C1448E562002500F0F2F92A222946E1
:1072F000204684F830500AF09BFC01236370A37091
:107300001B23E380238140F2032363811F23E38156
:1073100008232374EFF3108472B600F033FD2CB908
:1073200062B62046D6E76FF01500D3E72846D1E7CE
:10733000800B00208D72020010B5002842D1244C31
:1073400094F83030032B3AD059B1002A3DD002399D
:10735000052937D8DFE801F0031428362B2E1378DF
:1073600063700020FFF7F0FE0028B7BF012302235F
:1073700084F830306FF00B00A8BF84F8303010BDB7
:10738000137913B3537903B31188FB291DD81A2934
:1073900053881AD91B3BE02B17D81368C4F8063062
:1073A0000C4B92889A80DCE71378A370D9E7138896
:1073B000E381D6E71388FF2B07D82374D1E74FF07A
:1073C000FF30DCE76FF02C00D9E76FF01500D6E74F
:1073D000800B0020860B0020F8B50D46064630B322
:1073E00029B311F0070422D1124F97F83030012B46
:1073F00002D16FF00B00F8BD032B02D14FF0FF302C
:10740000F9E700F09DF80028F8D02846FFF79CFE29
:107410000028EEDB0EF0C0FA3046214602F064FB95
:10742000FFF734FF032387F830302046E3E76FF09F
:107430001500E0E7800B002010B5074C94F83030C1
:10744000032B03D102F068FB03F040FA0BF0ACFE13
:10745000002084F8300010BD800B002050B1074B95
:1074600003F1140253F8041B40F8041B9342F9D1B2
:10747000002070476FF01500704700BFBF0A05007D
:1074800010B5074B93F830403CB902F0F7FA0120F1
:10749000044900F09DF9204610BD4FF0FF30FBE796
:1074A000800B00202571020010B5074B93F8304087
:1074B0003CB902F0F7FA2046044900F089F9204669
:1074C00010BD4FF0FF30FBE7800B00200171020080
:1074D00010B5054B93F830401CB902F09BFA2046DA
:1074E00010BD4FF0FF30FBE7800B002010B5054BBF
:1074F00093F830401CB90CF0CAFE204610BD4FF086
:10750000FF30FBE7800B002010B5054B93F83040AF
:107510001CB90CF0BFFE204610BD4FF0FF30FBE75A
:10752000800B0020024B02681A600020704700BFE9
:10753000B40B0020014B1B68184700BFB40B0020A0
:10754000024B1868003818BF01207047B40B0020A8
:107550002DE9F743294E0446071D2848376003F0FC
:10756000CDF90228054607D1244920460BF07DF8C5
:10757000284603B0BDE8F083042838D13378072BC0
:1075800018D13E2000F050F878B9F378327901A98B
:1075900043EA02236846ADF800300BF0E1FA002818
:1075A000DBD053210820FFF737FE052000F07CF8E0
:1075B0000028EAD0314620460BF0BEF8B0F5817FB6
:1075C00001D37221EEE70028C7D094F8008094F828
:1075D0000290404600F028F80028BED0B8F13E0FD7
:1075E000C6D1484600F060F80028C1D1B5E70828A8
:1075F000BED1024920460BF067F8B9E7B80B00206E
:10760000074B4FF0FF3141F6FF72C3E90012054905
:107610000022C1E900221F21C3E90212704700BF06
:1076200000000020FC0B00203F280CD801380B4B39
:10763000C0F3421200F01F0053F8223023FA00F08A
:1076400000F001007047FF2806D04038C0F3421216
:10765000034B00F01F00EFE70120704700000020FF
:10766000FC0B00200146074B006849681A4603C21C
:1076700040F48C221A6041F0107242F4FF625A60AA
:10768000704700BF000000200246024B00685168AE
:1076900003C37047FC0B00200246024B0068516890
:1076A00003C3704708000020FD281ABF00F1FF3017
:1076B000C0B23F20054B420903EB820300F01F00DC
:1076C0009B6823FA00F000F00100704700000020E2
:1076D000014B1860704700BF040C002007B5FFF78E
:1076E0008FFF0CF023FA044B1B6813B101909847ED
:1076F000019803B05DF804FB040C00200B8802889D
:10770000F0B5C3F30E049EB204F11803C57CC35A4E
:1077100002352A442B4497B213FA82F3013B428884
:10772000B3FBF7F313FB07439BB29A42044A93BFA0
:1077300022EA0603324013439BB20B80F0BD00BF28
:107740000080FFFF08B54B1E062B04D84FF4D17103
:107750001520FFF761FD0A4B994202D940F2A311AF
:10776000F6E719B900B10160084608BD28B1036801
:107770000022C3E901211A1D1A600431F4E700BF99
:10778000FAFFFF7F10B5114B00EB41041A786389B3
:10779000B3FBF2F303FB0223013A1A44B2F5706F14
:1077A000027928BF00231A448378B2FBF3F019440E
:1077B00003FB1020091AB1FBF3F003FB1013134471
:1077C0006FEA43436FEA5343638110BD080C002006
:1077D000024B03EB80004160704700BF080C0020A3
:1077E0002DE9F04F10F0070A85B0054604D040F2AD
:1077F00061111720FFF710FD554F07F10C06B14638
:107800000446B0464FF0010B57F8043B8DF80BA02F
:107810003BB101A898479DF80A30082B01D9E8210F
:10782000E7E79DF80B1081BB05B13160B94506F162
:107830000406E9D12DB3DFF81CE100238EF80030F7
:107840001E46022258F82200013A60B190F804A0C6
:107850008178BAF1FF0F66D14FF000078E420771B1
:107860003CBFCEB20123511CECD10BB18EF80060AD
:10787000022640F6FF6A58F82670002F65D1013EB7
:10788000F9D2601B05B0BDE8F08F9DF80AC0BCF1CD
:10789000020FE64601F1050238BF4FF0020E0EF16D
:1078A000FF3004EB42040444CEF100002040BDF858
:1078B00008406444013CCCF1000C04EA0C04B4F52B
:1078C000803F4FEA420301D3F82192E775B1C31A12
:1078D000336099701C8083F803B09DF80C201A71F6
:1078E000019A1A814FEA124CA3F806C004FB010466
:1078F0009CE758F82C90B9F1000F06D099F804B025
:10790000D34504BF99F802904F440CF1FF3CBCF101
:10791000000FEEDA3944FF29A0D90BB18EF80060D0
:1079200040F2271165E794460027F0E707EB410393
:107930003846A3F80AA0FFF725FF09F10109BB7833
:107940005FFA89F18B42F1D899E74FF00009F6E729
:107950000C0C0020080C0020F8B54FF6FF730380D4
:10796000184B03EB810105460869B8B186780379A5
:10797000B3FBF6F206FB1233DBB219460A1D00EB2D
:107980004202B2F902705488002F09DB0131B1FBC9
:10799000F6F206FB1211C9B28B42EFD10020F8BDFE
:1079A000FF29FBD0C4F30E03C4782B8024B94FF415
:1079B000D5711720FFF730FC5380BDE8F8400BF07D
:1079C000DEBA00BF080C00201D4B03EB810170B52F
:1079D0000C69054644B3030404D54FF4DC71172049
:1079E000FFF71AFC014620460BF0ABFAFF280146D0
:1079F00004D02046BDE870400BF0C1BAA078B5FBBA
:107A0000F0F300FB1353DBB219460A1D04EB4206E8
:107A1000B6F90260002E09DB0131B1FBF0F200FB88
:107A20001211C9B28B42F0D1002070BDFF29FBD0EA
:107A30008B4204EB42021CBF0023E3705580D8E761
:107A4000080C0020094B03EB810110B50C690146BD
:107A500020460BF076FAFF28014604D02046BDE808
:107A600010400BF08CBA002010BD00BF080C0020A5
:107A7000F8B5104B03EB810107460C69014620461F
:107A80000BF05FFAFF28054611D0E688238953EAF8
:107A9000064606D0014620460BF071FA01463846EC
:107AA000B04720462946FFF76DFE0020F8BD0520AF
:107AB000FCE700BF080C002038B50E4B827903EBC1
:107AC00082030446186908B9052038BD8278E17937
:107AD0009142F9D24B1CE37100EB41035D89B3F98C
:107AE0000A30002BF3DBA5800BF049FA2060002060
:107AF000EBE700BF080C002070B5044610F003004F
:107B00000E4603D04F211820FFF786FBFFF71AFE21
:107B1000054624B1034831460460FFF713FE2846AA
:107B200070BD00BF240C00202DE9F3471C4C9DF8CC
:107B30002CA0904622681E4607469DF828300D4628
:107B40001AB961211820FFF767FB1A460921404640
:107B500001930BF066F852461FFA80F9092130466E
:107B60000BF05FF819FA80F120680BF0BFF9019B68
:107B7000386018B9286002B0BDE8F08700EB09044E
:107B80002C603868414609220BF004F828685346F7
:107B90000922314602B0BDE8F0470AF0FBBF00BF42
:107BA000240C002070B50E4604460BF04DF8054637
:107BB00030460BF049F8044B2A1821461868BDE8F6
:107BC00070400BF0B7B900BF240C0020014B1868BF
:107BD0000BF080B9240C00201F2AF8B504460ED8FB
:107BE0009200033222F00303B3F5803F2ED2194DE9
:107BF000B4B1A00711D05F210920FFF70DFBFF2AC8
:107C00004FEA420304D9FF329A42A8BF1A46E8E776
:107C10007C2BB8BF7C231A46E3E729706C602B816C
:107C200022F0030201EB81031204D80001276B68E4
:107C3000120C0025EEB28E4200D3F8BD14B1261806
:107C40001F705E60104401352833F3E74FF0FF30BA
:107C5000F3E700BF280C002038B5144A14785368A5
:107C60000021C8B2844203D8AB210920FFF7D4FA1F
:107C70001846013105782833002DF2D0002181709B
:107C800001241289447044688161C161920800F145
:107C90002001051D21F8022B994245F8044B14449C
:107CA000F8D100234361037038BD00BF280C0020C9
:107CB0002DE9F8434B7880460C4602F0040602F0AA
:107CC000FB07D3B1DFB12E4BD4F804901D89B7BBAD
:107CD00001236370AD08A761E76104F120034A4600
:107CE000211D04F1280023F8025B984241F8042B7F
:107CF0002A44F8D10023636101E0002FE3D0FF2381
:107D0000A370002E18BF0226A3191B7D032B03D1DD
:107D1000022F1CBF0136F6B2A31901221A7506F113
:107D20000C0204EB8606002324F812307268A3705C
:107D3000C8F80020A8F804304046BDE8F8830021C8
:107D400014226170A01809F073FFB5F5FF7F0FD200
:107D50006B08ED1AADB209EB0502C4F80490258456
:107D6000A2606384C4F80C90A5842261E384C6E712
:107D7000B5F5EE6F4FF0FF03EBD940F27265EAE71D
:107D8000280C0020134B012200214FF0FF309A6095
:107D9000C3F80012C3F80803C3F80015C3F804259C
:107DA0009A60C3F80803C3F80015C3F804250A490C
:107DB0000A4A03F580334FF40040C3F80825C1F8A0
:107DC0008000BFF34F8FBFF36F8FC1F88001C3F8FE
:107DD0000825704700F0004000E100E00000F63F99
:107DE0000A46192302F8033B0448C368C1F803306C
:107DF0000369536043699360704700BF340C0020EF
:107E0000024B5A8C02435A845B6A1847340C002098
:107E1000014B00215B6A1847340C002010B5154C4B
:107E200005F05AFE05F0F2F9208DFFF7F1FF237EF1
:107E300063B12246104952F80C3BE360636853601B
:107E400004F11900A36893600CF0BAFE0B4B228D6D
:107E500093E8030003F0C8FA236B188803F0F0F9E5
:107E6000A36B94F8341094F835009847002384F8F5
:107E70003C3010BD340C0020E17D0200600C00207D
:107E8000034B93F83C300BB1FFF7C8BF704700BFFE
:107E9000340C002070B51E4C256B636C236495F880
:107EA0008C30064694F848000BB1031DD8B295F803
:107EB00069102EB9FF2803D195F868308B4201D0A4
:107EC00005F0A6FC95F88C30E3B1E06C05F0A4FE5B
:107ED000012384F86830D5F8E8302366E16CD5F8E2
:107EE000EC30206C636605F047F916B9304605F0B2
:107EF000DBFE95F86810002005F020FF022384F8CF
:107F00003C3070BD206C05F087FE05F07FF9ECE792
:107F1000340C002008B5094B93F83C20022A04D009
:107F200040F22D212720FFF777F9DA7A42F001029B
:107F3000DA72BDE80840FFF771BF00BF340C0020C3
:107F400010B50E4C626F137803F00303032B04D1BA
:107F5000D378022B01D1002010BDA06F0AF0FDFEE6
:107F60000028F9D1636F1B7803F00303032BF2D0D1
:107F700001F0B4FF80F00100C0B2EDE7340C002046
:107F80002DE9FF41434C94F83C30256B012B06460C
:107F90000F465FFA83F804D040F29D412720FFF797
:107FA0003BF995F87C303BB1002185F87C1004202A
:107FB000FFF726FF85F87E80616F0B7803F00303DF
:107FC000032B05D195F8823013B90220FFF718FF73
:107FD000626F137803F00303032B02D053782BBB9B
:107FE000012385F8823095F88C30CBB1236BD5F81E
:107FF000E81094F8482093F8690021664FF00108D2
:10800000D5F8EC100392616684F868800BF0CEF826
:10801000002103460091039A1F49404605F066F887
:1080200036B104B0BDE8F041FFF7F8BE0223D8E74F
:10803000002FF6D0E36F304698470028F1D094F82F
:108040003430002BEDD194F88030DD06C3F30010FE
:1080500001D5FFF775FF636CD4F884201B78C3F358
:1080600000132AB9B4F8882013B1B2FA82F35B097D
:10807000628C910709D5636FDB78022BD1D1002088
:1080800004B0BDE8F041FFF705BF002AC9D10343A2
:10809000F5D1C6E7340C0020840C002010B5064B47
:1080A00093F83C2002F0FF0422B91C7603F094F907
:1080B000204610BD0C24FBE7340C00200A4B0B4A71
:1080C00070B506460D461A60FFF7E8FF18B1DE21CD
:1080D0002720FFF7A1F8064C012104F18A000CF0DB
:1080E0004DFC6664E56470BD48000020A88802006D
:1080F000340C0020024B012283F8AC20704700BFF3
:10810000340C0020F0B57D4C85B002AE86E803004B
:1081100094F83C100A9F01F0FF0511B90AB103B1B0
:1081200027B940F26D112720FFF776F896E8030093
:1081300004F12C0C8CE8030084F8AC5084F8345023
:1081400084F8AD5084F8355084F8AE5084F8AF50C0
:1081500065842585256BE3676262A76305F096FB5E
:1081600005F054F895F9700005F01EFC686A05F0FA
:1081700045FDE86905F01EFC95F89C0005F040FC03
:10818000236B93F89F310BB105F06EFB95F86920D6
:108190009D21012005F08CFC594B186805F034FD39
:1081A0002B69A367574A6B69C4F8B03005F5807135
:1081B00005F1F00353F8040B42F8040B8B42F9D19C
:1081C000D5F80021C4F869205A684F4B5A60236BD8
:1081D00093F88620A2F12501012993F868100E4634
:1081E00003D993F8870025285FD193F846322BB145
:1081F000012E03D0012B14BF0226012605F1300702
:10820000314638460CF06CFD31460CF014FAAB8F59
:1082100095F86910984228BF184684F8B40038468B
:108220000CF047FD95F8691095F88C70B5F844602E
:10823000042908BF03210CF0FEF90FB9043080B205
:10824000B04228BF304695F88C30C6B284F8B5608D
:1082500084F84860A3B1D5F8E83095F86900236642
:108260000127D5F8EC30636684F868700AF09EFF49
:1082700000220346009223493246384604F036FF76
:108280000120FFF707FE002323606360A360B5F8B9
:10829000803063802B88238095F89C302371EB6EAF
:1082A0000BB101221A6005B0F0BD203A012A0CD8AA
:1082B000232893F826210AD012F0010319D192073E
:1082C0009CD5012918BF022698E723280DD193F8E1
:1082D000262193F86130134013F001020BD19B0764
:1082E0008CD5012908BF0E46ECE7032908BF0426F8
:1082F00084E71E4682E7164680E700BF340C002064
:1083000048000020840C00209D0C002008B50C4B78
:1083100093F83C201AB9BDE80840FFF77FBD93F8F9
:108320003C20022A04D040F20F212720FEF774FFE0
:108330001B6BD3F8B801BDE8084005F087BC00BF4F
:10834000340C0020014B1876704700BF340C00201D
:10835000014B93F8AE007047340C0020024B188D8F
:10836000C0F3C020704700BF340C0020014B93F8CD
:10837000AD007047340C00202DE9F3411E4D8207FB
:108380002C6B06460F4622D5D5F8843023B940F22F
:108390008E412720FEF740FFB5F88820296C18464B
:1083A000033291F8018009F0AFFC0DF1020201A93E
:1083B0002864D5F8B0000AF083FD01980AF06AFD40
:1083C000012238604146D5F8B0000AF010FDF307ED
:1083D0000ED5D4E93A32013342F10002C4E93A320F
:1083E00094F88430012B0CBF0023012384F88430DF
:1083F00002B0BDE8F08100BF340C00202DE9F04F41
:10840000AB4C002387B0CDE9043394F83C30276BA4
:10841000022B81468A4604D040F211512720FEF7F4
:10842000FBFE238D590606D44020FFF7F1FC238D77
:1084300043F04003238597F88C30B9F1000F00F02A
:108440002781A3B104F0FAFE88B9236C5A7872B17F
:108450001B7897F88420C3F3C0039A4207D1012305
:1084600084F83530FFF7DAFC07B0BDE8F08F236CF5
:108470005978A4F8881009B3D4F8B0000AF08EFC3B
:10848000C4F88400238D97F8832043F40073238578
:10849000236C1B78C3F380039A4200F0BA80256BEB
:1084A00095F88230002B3DD0022B11D1A06F04A98A
:1084B0000AF015FC28B940F20541AFE7C4F8841072
:1084C000E0E7D5E93832013342F10002C5E938323C
:1084D00095F87E30002185F8821023B185F87E1052
:1084E0001020FFF78DFC95F87D309BB1002685F8B4
:1084F0007D6001F0DDFC10B940F21C418EE7314691
:108500000820FFF77DFCD5E93832013342F1000243
:10851000C5E9383295F88330012B0CBF00230123C5
:1085200085F88330238D43F4006323854FF0000BDF
:10853000216C97F884200D78C5F3C0039A4240F06F
:10854000998005F00305032D266B64D0002D6DD1B5
:1085500096F88430013B18BF012386F88430236CE1
:108560005B7833B1D6E93A32013342F10002C6E911
:108570003A3297F88B309BB1D7F8E03097F8680023
:1085800023660026D7F8E430636684F868600AF052
:108590000DFE484900960346FB22304604F0A6FD36
:1085A000BAF1000F40F08880628C94F8AD30120769
:1085B00003D5626FD278022A7ED0012B7CD8E36F7C
:1085C00001209847002877D094F83480B8F1000F44
:1085D00072D1266B94F8483096F88C208DF80D8077
:1085E000002A40F0B480FF2B96F8681003D196F86B
:1085F00069308B4202D0FF2005F00AF996F88230EC
:10860000032B00F23B81DFE813F0A500D600200128
:108610003101CB468CE7238D012043F4805386F84B
:108620007C0023850025FFF7EBFB91E74D78002DBB
:108630008ED0238D96F88C5043F48053238505F01B
:108640009DF8042894F8B53006D1002D14BF1B22E4
:108650001F22934228BF1346226C52789A420BD8AD
:10866000D4F88450002D84D094F8AC3073B120201D
:10867000FFF7CEFB00257CE794F83430012043F06F
:10868000100384F8343006F019FBF3E74D465FE73A
:108690000BB104F00FFE94F8AD30013384F8AD3027
:1086A000238D002543F480632385AB4661E700BF3B
:1086B000340C0020840C002005F060FB4FF0010A10
:1086C0001DB105A90220FFF757FEBBF1000F0DD029
:1086D000B4F80720B4F805301343B7F880201343EB
:1086E0001EBFB4F809300133A4F80930B9F1000F06
:1086F00000F0CC80B4F805300133A4F80530002335
:1087000084F8AD30644802F089FD049830B10AF075
:10871000C1FB216B0022027202F034F9059B33B1D8
:10872000216B00221A720C22059802F0F9F8BAF1B6
:10873000000F7FF497AE238D1B063FF595AE80208A
:10874000FFF766FB238D43F0800323858CE604331B
:10875000DBB248E794F8B430ADF80E304F48A6F8D5
:10876000583001F095FB50B1616F4FF48070FFF706
:1087700047FB012386F87D3084F8AF301DE0A06F01
:108780000DF10D020DF10E010AF086FA606790B14D
:1087900096F8C7307BB99DF80D302BB903808370F4
:1087A000606F01210CF0EAF8BDF80E10606F0CF05C
:1087B000B0F90123E0E73A4B636796F88330626FC4
:1087C000DB0003F00801137803F0F3030B4396F882
:1087D0008410890001F004010B4323F0100313708F
:1087E000FFF7AEFB0028606F037818BF4FF010084A
:1087F00048EA030880F8008096F88B30002B40D0C0
:108800004378002B3DD0E06C05F006FA002384F895
:108810006830D6F8E0302366616FD6F8E430E06C5B
:10882000636604F0A9FC96F86910012005F086FA49
:10883000626F1188A4F8801091781A4A012384F895
:10884000AE30917084F83C303AE7B6F85830A06FFB
:10885000ADF80E300DF10D020DF10E010AF01CFA0B
:1088600060670028A5D140F2CD21D7E50B4801F083
:108870000FFB00289DD140F2D721CFE540F2E52142
:10888000CCE505F0C9F904F0C1FCCCE7B4F8073039
:108890000133A4F8073035E7600C0020A80C002055
:1088A000BE0C0020B40C0020157F0200FD830200E6
:1088B000817F0200817E02000B2808B504D940F2B6
:1088C000F2310620FEF7A8FC014B33F8100008BD7A
:1088D00038DD04002DE9F04F2DED028B8BB00446FE
:1088E00015460293894690F869B00BF01AFD0646CA
:1088F00094F8A001FFF7E0FF94F887300393304429
:1089000085F0010386B2059385BB94F8E431032B0F
:108910002CD1039B0D2B29D1B4F844324B4525D1E2
:10892000D4F8EC31C4F8D831A369B4F8BC21C4F848
:10893000DC31B4F832321344C4F8E031204604F09C
:10894000F5FAD4E99223A262B4F84622A285D4F8BB
:108950005022226241F64B529342A3618CBF002306
:10896000012384F87230022384F8E431B4F83072C1
:10897000B4F88080A9EB07073FB204F50073002F1D
:1089800008EE103AB7BFD4E98623029BC4E98A23D4
:1089900001230493CD4BA9EB08081B780FFA88F844
:1089A000B8BF474603F0FF05002B53D005F0FEFF8C
:1089B00000286FD0B4F8D031012B6BD994F8E43192
:1089C000022B67D094F8FA51002D63D194F8A001DE
:1089D000FFF772FF94F8E43100F5C860012B86B20E
:1089E000D9B24AD194F88A30D4F828A0032B3ED1CA
:1089F000D4F8DC5155443146D4F8DC0105F09AFF37
:108A0000D4F8D831C4F8D801A0EB030AD4F8E03187
:108A10003146284603FB0AFA05F08CFFD4F8E851EA
:108A2000C4F8E801451B3146A06905F083FFAA445C
:108A3000B4F8BC51D4F8E0314544ED1BDB432B4482
:108A4000D4F8EC51451B05FB03A50123C4F8EC0148
:108A500084F8FA3194F8E431DFF870A2032B00F2C5
:108A60008C81DFE813F019001401690035012846F4
:108A70000BF009FE00EB0A05BDE7A069314605F0E1
:108A800059FFB4F8BC51D4F8EC314544ED1BC31A7E
:108A90005D43DAE70025DDE7012100200BF0F3FD5F
:108AA0008046A06A3146404405F044FF3146C4F890
:108AB000E801A06905F03EFF07A9C4F8EC0108A889
:108AC00005F064F9079B0093D4E98A01DDE90823E6
:108AD00008F000FC074620460AF08CFBD4F834323C
:108AE000A66A94F869001E4405F096FAD4F8E811D5
:108AF000A38D943E761AB044A8EB070800F52340F6
:108B000030314FF47A7703EB4101A130B0FBF7F03D
:108B1000A8EB000794F869000AF058FBD4F8343247
:108B2000FB1A2230B3F5917FCAF8040058D240F204
:108B3000D2413020FEF770FBA36AD4F8DC01314645
:108B4000184405F0F7FE3146C4F8E801A06905F0C5
:108B5000F1FEC4F8EC0120460AF04CFBB4F8BC313D
:108B6000A66AD4F8DC71002B40F08D80029B002BAC
:108B700000F0898094F8690005F04EFA3E44D4F87C
:108B8000E871943ED4E98623F61BD4F8207280461F
:108B90003E4494F86900B61A05F03EFA4FF47A7331
:108BA00000F2E73708F52340B7FBF3F73744A1306D
:108BB000B0FBF3F0D4F8E811D4F8D831D4F8E021C0
:108BC000303102FB0311A38D3F1A03EB410194F8EE
:108BD00069000AF0FBFA0123CAF8040084F8E431C2
:108BE000A6696FF4F4731E44D4F8EC31F61ADAF87F
:108BF00004309E4228BF1E46D4E98A327F1BDF190B
:108C000042F100024FF00008C4E98472C4F8B86170
:108C100084F8008204F130000CF049F8B4F8A8118F
:108C2000A4F83092D4E98423A1EB09090FFA89F959
:108C3000C145C4E98A23C8BF022384F80882C8BF9B
:108C400084F80832039B30440D2BC4F80402029BC5
:108C500000F09680002B40F0948094F8E431002BD3
:108C600000F0AD80A169D4F8EC3118EE100AC91AF1
:108C70000BF0B0FC80B2002800F0A180169B03B17D
:108C800018800120ABE0D4F8E801374492E7D4F82B
:108C9000EC21A369D4F8E001D4F8D8119B1A5F4302
:108CA000B4F8BC319844C3439844D4F8E831303325
:108CB00001FB0033A18D94F8690002FB083301EB3E
:108CC00043010AF083FACAF8040089E7EC0C00209B
:108CD000A369D4F8EC219B1A5F4394F88630252BC6
:108CE00003D094F88730252B0AD1B4F84432A9EB8D
:108CF00003031A0404D494F84732002B18BF9B4690
:108D0000049B63B3B4F8BC314BBBD4E98623D4E9EC
:108D1000880182428B4102D340F2265109E794F840
:108D2000690005F079F9D4F820220646D4E98601D5
:108D3000A2F194031B1A3B4494F86900049305F0D4
:108D40006BF9049B00F2E7374FF47A7206F5234083
:108D5000B7FBF2F71F44A130B0FBF2F03F1AB4F8B2
:108D6000BC11D4F8EC3141445943303149005846E4
:108D70000AF02CFA1C4B586032E740F23E51D8E61C
:108D8000EBB1B4F8D01121B3B4F8D22194F8D431B6
:108D9000A4F8D22102FB0333994202F101000EDD57
:108DA00094F808325BB1002384F80832A4F8D201A9
:108DB00001F07EFE00F00700013084F8D40118EEC7
:108DC000101A94F8FB0107F05FFB20B940F28751BD
:108DD000AFE60A46DAE7059B84F8F83100200BB0CD
:108DE000BDEC028BBDE8F08FEC0C00202DE9F041CA
:108DF00004460D46164690F8F03003F0FF071BB10D
:108E00000C273846BDE8F0810146454807F0F0F9E7
:108E100020288046F4D05822394604F1C80008F0D2
:108E200007FF84F8C880C4F8CC50FF2384F8F030E2
:108E300035B101F055FE00F00700013085F8D4018E
:108E400002234FF00008A4F8003184F8F88005F000
:108E5000C3FD9E3085B220460CF0D9FB014670B3AD
:108E60000BF05FFA00F5CD6081B2304605F062FD8F
:108E70003044C4F8FC000CF0A9FE281841F10001B0
:108E8000C4E94201012084F8D000A4F826800CF047
:108E90007CFCE53E361AC4F8D4604FF0FF326FF028
:108EA0000043C4E9442394F8C80004F1F80107F032
:108EB000EBFA48BB4FF4E5713020FEF7ADF92046E0
:108EC0000CF0CAFADFF85C80E530C4F8FC00B8F8B2
:108ED000080048B1E08C38B101F002FEB8F8083063
:108EE000B0FBF3F202FB130005440CF06FFE2D18EB
:108EF00041F10001C4E94251002ECED0751941F173
:108F00000001C4E94451CEE7D4E942230021C4E979
:108F10003823C4E93A2320460CF096FB71E700BFE2
:108F200093340300EC0C0020F0B5002385B0CDE9AC
:108F3000003301238DF806306846FEF7BDFD70B1A1
:108F40001B4E0123B3720027CDE9027702A8FEF77A
:108F5000B3FD0546A8B10023B37205B0F0BD00987B
:108F60000AF051FBE8E790F8FB0108F071F894F87B
:108F7000FB0184F8E45107F06FF9202384F8FB31FA
:108F8000E2E7029B002BE1D093F8FB21202ADDD001
:108F900018884FF6FF739842DDD02946FEF752FD40
:108FA00004460028DFD14FF49A713020FEF734F9DF
:108FB000EC0C0020054B00220121DA7219709A7224
:108FC00042F210721A81FFF7AFBF00BFEC0C002015
:108FD000014BD872704700BFEC0C002008B504F0BC
:108FE000D3FB044BDA6882422ABF987A002080F0D3
:108FF000010008BDEC0C00202DE9F34704460629CA
:1090000000F2C680DFE801F0047C69798085BF004A
:10901000D0E98623D0E9880182428B414BD294F873
:10902000FA31002B47D094F8E431032B43D194F864
:1090300069A00BF076F9074694F8A001FFF73CFC15
:10904000D4E98612D4F82032D4F8B86181460744B6
:109050005046A3EB010804F0D7FF361A504604F03F
:10906000DBFF00F523404FF47A72A130B0FBF2F041
:10907000321AA2F17401A2F1D403BFB2490809F572
:10908000C8699D317B431FFA89F9B3FBF9F360335B
:109090005A08A1EB5303984502D31144884501D9DE
:1090A00005F08AFCA069394605F044FC0023C4F8A9
:1090B000EC0184F8FA31384B9B7A03F0FF0263B974
:1090C000B4F8AC11009201232046FFF703FC38B13D
:1090D0004FF4DA613020FEF79FF8042384F8E4317E
:1090E00004F04CFD06F028FFB4F88020A4F8F62127
:1090F0000023A4F8323284F8F93102B0BDE8F087D9
:10910000032380F8E431F8E70CF0AFFCC4E98801F0
:10911000F3E78569D0F8EC31DFF87C809D4288BFA9
:10912000ED1A98F80B3098BF00251BB9036B9D42D0
:1091300028BF1D4604F13000D4F8B8710BF0B7FD1C
:109140000744022007F008FEEE1B26EAE676864278
:1091500028BF06460221304607F052FE00B93744C8
:1091600040F2D312394620460BF0F2FDD4F8B83164
:10917000C8F80C00A069184407F0B0FD0028BCD165
:1091800040F27E31A6E702B0BDE8F0470AF032B8FF
:1091900040F284719EE700BFEC0C00202DE9F843FB
:1091A00006460C4615467ABB04F0EEFAD4E942892D
:1091B000074684F8D05084F8F0500121D4F8CC0050
:1091C00001F0CCF8D4F8CC00C0E9868994F8C82026
:1091D00080F8FB21C0E98A89C0F834720AF00BF9E3
:1091E00020B14FF4E2613020FEF716F804F0C6FC1F
:1091F00006F0A2FE074994F8C800324605F04EFD7D
:1092000028B940F29771EEE740F2AE71EBE7BDE8A6
:10921000F88300BF1D320300014B1881704700BF67
:10922000EC0C0020F0B5070CA7F5AA42144B543AF9
:10923000012A03EA90231FD927F4004042F6AA220C
:10924000801A18BF01200022162116461F2487EA23
:10925000060562EA0505013510D0DD03ADB245EA29
:109260005606E503ADB2013945EA52024FEA53030F
:109270004FEA5404EBD1F0BD0020E4E70020FAE708
:10928000E0FF3F00304BF0B55A88B0F85C70B0F8A2
:109290005A609D88974228BF1746964228BF1646B7
:1092A0001B2E85B00C462ED0B5F5A47F2DD040F6F0
:1092B00048039D4201A928BF1D460AF004FBBDF8E2
:1092C0000A309F4228BF1F46BDF80C30E780AB42F2
:1092D00028BF2B462381BDF806309E4228BF1E467C
:1092E000BDF8083066809D4228BF1D46A580FF233B
:1092F0002370E3881B3B9BB2E02B08D940F2196135
:109300003920FDF789FF1B2FCED105B0F0BD638852
:109310001B3B9BB2E02B02D940F21B61F0E7238993
:10932000A3F5A4739BB2B3F5E06F02D940F21D61BF
:10933000E6E7A388A3F5A4739BB2B3F5E06FE4D985
:1093400040F21F61DCE700BFFC0C002010B50121DA
:109350000020FEF777FB044670B90121FEF734FBCD
:10936000044620B940F24D313920FDF755FF034B3B
:1093700093F906100CF038F8204610BDFC0C0020C4
:1093800008B50BF0DAF800F0F5FE00F0F5FB0BF095
:10939000EFFB01F083F801F0B1FF01F097F8094B02
:1093A00000221B214FF4A47098801A805980DA7132
:1093B000054B064818605A829A7599805A749A82A9
:1093C00008BD00BFFC0C00202411002003021B007C
:1093D000044B41F64C52C3E902221B221A74FFF7D8
:1093E000CFBF00BF241100202DE9FF41354DAB68F0
:1093F000044640F8303F0AF03DF9064600F0ACFB69
:109400002B7C84F83830304B668710F0200F1B68B7
:109410001DBFAA886988A4F85A101B2208BFA4F8A7
:109420005A20A4F85C201BB194F97010208898474A
:10943000AE7CEF7CB5F8148041F64C53A36116B9AD
:1094400000F090FB064687BB00F08CFB074676B326
:1094500068B303A920468DF80C608DF80D70ADF847
:109460000E800BF00CF901236A88E385AB886978DC
:10947000019103332978009103329BB292B204F137
:10948000140104F11000FEF74FFB236913B94FF4E8
:10949000BE6114E0636913B940F2F1510FE000209E
:1094A00004B0BDE8F0810920FAE7002ED1D1208870
:1094B0000021FEF7DDFA0028F5D040F2D351392023
:1094C000FDF7AAFE241100204C000020F7B5054648
:1094D0000E460BF0BCFF002874D028460CF097F81D
:1094E00040B1B6F80130013B7F2B03D9122420464E
:1094F00003B0F0BD28460CF08EF808B90C24F6E74E
:1095000028460AF06CF90028F8D128460BF05DFFD8
:1095100004460028F2D1284602F0A2FB0028E5D03C
:10952000B6F80170F17842F21072284657430CF0F9
:109530005BF828460CF063F8014658B93A462846CD
:10954000FFF754FC04460028D1D041F615213920FC
:10955000FDF762FE21460DF10600FEF7FDF9064615
:1095600070B3214600F0FAFEBDF80630338028467D
:1095700031460CF05AF828460CF053F8A0B9296A85
:1095800028460CF050F801463046FFF72DFF044600
:109590000028ACD13A4631462846FFF727FC04465E
:1095A00020B141F63821D2E70121EDE7064B9B6857
:1095B000002B9CD0024606F58D713046984796E701
:1095C0000D2494E7422492E7FC0C0020034B5A88B8
:1095D00002801B7883700020704700BF2411002098
:1095E00037B583781A2B054609D8042B05D90122F3
:1095F00002FA03F3134A134205D112241AE0292B6D
:1096000001D03B2BF9D12888B0F5706FF5D26946AF
:109610000AF0D3FF88B9019B93F8182102F0FF04E8
:109620006AB9AA7883F81921FF2283F818216846BD
:109630000BF079FA204603B030BD0224FAE70C247F
:10964000F8E700BF200038040188A1F11B039BB29A
:10965000E02B0CD84288A2F5A4739BB244F24810C8
:10966000834204D8034B002059809A80704712200F
:10967000704700BFFC0C0020034B5A889B88028077
:1096800043800020704700BFFC0C002038B50478F0
:109690004278857804F0010352EA030104F00204E1
:1096A00001D1112038BDBCB9002DFAD0002B08BF64
:1096B000144601E00024254620460AF0CFF8002891
:1096C000EFD028460AF0CAF80028EAD0054B00205F
:1096D0009C74DD749882E5E7002BEBD114461D469F
:1096E000EAE700BF2411002013B5008869460AF09C
:1096F00064FF18B10224204602B010BD019A92F80E
:10970000E431DBB292F8A820002AF3D113F0FB0F6A
:10971000F0D0019890F82A310BB13A24EBE790F899
:10972000D23003F0FF04002BF7D190F8C9309B072B
:1097300006D1FF2380F82A3168460BF0F4F9DAE706
:109740000249CA300BF03CFAD5E700BFC95203000A
:10975000F0B50778EF2F85B004460D4603D91225E2
:10976000284605B0F0BDB0F80130ADF80C309DF9D9
:109770000C209DF80C30002AF1DB9DF80D2091079C
:10978000EDD1DA063FD49E0603F0030238D5002A55
:10979000E5D11807E3D46378190711D42179E27869
:1097A000E07942EA0122617942EA0142A17941EA83
:1097B0000021207A41EA00418A42D0D81F2ACED91E
:1097C000627A013A062ACAD8A27A032AC7D813F0C5
:1097D000040102D1023A012A03D8E27A012ABED852
:1097E00011B9A27C032ABAD813F01001227D19D036
:1097F000012AB4D1227E012AB1D8B1B91125AFE72F
:10980000032AC6D1ABE713F0600FA8D103F00F0213
:1098100003F00703052BBED0931E012BBBD9002AF2
:109820009DD1B8E7022AE5D199E7DA071FD463781A
:10983000227D03F0180108291ED1022ADED11B0760
:1098400009D4E279A37943EA0223227A43EA024364
:10985000B3F5804FD2D8BFB201213846FEF7F2F8F7
:10986000064678B109F0BBFFB8B10C2578E700F0E7
:1098700035F90028DBD1C1E7022AE0D0227F002A97
:10988000DDD0BBE701213846FEF79EF8064650B30F
:10989000164B93F906100BF0A7FD30460BF0ACFE0B
:1098A00021462870E07430460BF0F2FDE37E054659
:1098B000002B3FF455AF00287FF452AF316B0246C6
:1098C0006846FEF7F5F9306B2A46012109F0C0FB26
:1098D000316B68460422FEF7EBF9306B2A462946C5
:1098E00009F0B6FB3CE707253AE700BFFC0C002077
:1098F00070B50579042D8AB003465CD84488B4F568
:10990000804F58D82D48465D284400214279857AF9
:10991000C07BADF8001042F0100242EA460242EA73
:10992000850242EAC00202F01F028DF80020BDF855
:109930000020ADF809201A888DF80B208DF80E4014
:10994000120A240A8DF80D108DF810108DF80C20D5
:109950008DF80F405A7B8DF811205A798DF812201E
:109960009A79D3F807008DF81320B3F80B209B7B6E
:109970008DF81A307F238DF81B3001238DF80810E5
:1099800005908DF81D10ADF818208DF81C308DF85D
:109990001E3002A88DF81F108DF820108DF82310AE
:1099A0008DF824108DF821108DF822106946FFF7EC
:1099B000CFFE0AB070BD1220FBE700BF50DD0400EF
:1099C0000278034672B1427862B142881A2A09D9F4
:1099D00082881A2A06D9044A006810609B889380FE
:1099E000002070471220704724110020024B0268AB
:1099F0009A600020704700BF241100200378A3F173
:109A00000A02112A9DBF024A0020137412207047D7
:109A10002411002008B5052000F090F803F0B6FAF4
:109A2000014B024A9A6008BDFC0C0020859202009E
:109A300008B502F0FDF8FFF7BDFABDE8084001489F
:109A400002F0E0B8080D002010B50B4C012384F89B
:109A5000023102F0F5F80BF05DFF0AF06CFD04F244
:109A600003112046FEF72AFB002009F090FABDE81A
:109A7000104000F03BBF00BF080D002010B5064CA1
:109A8000064904F502700AF011FC04F5037004495C
:109A9000BDE810400AF00ABC080D0020500000206C
:109AA0005800002010B5094C094904F502700AF06D
:109AB000FDFB04F5037007490AF0F8FB04F5047098
:109AC0000549BDE810400AF0F1BB00BF080D0020B9
:109AD000680000207000002060000020014B93F817
:109AE00002017047080D002010B5074C00F0DAFEA7
:109AF000D4F808020AF0D2FBFFF76AFC01F008F87C
:109B0000012384F8143210BD080D0020014B93F896
:109B100014027047080D002010B5074CD4F80C0251
:109B20000AF0BCFBD4F810020AF0B8FBFFF728FCDF
:109B3000002384F8143210BD080D0020C208054926
:109B4000012300F0070003FA00F08B5C18438854EF
:109B5000704700BF10000020014BD3E9000170479F
:109B600010000020034B1868C0F30020400040F0B4
:109B7000010070471000002008B504F023FF084AD8
:109B8000002332F82310814205D302EB83039B7834
:109B9000044A137008BD01330C2BF2D10023F7E700
:109BA00064DD04001D0F002010B544682388A4F86C
:109BB000683194F8683084F86711012B06D0022BC5
:109BC00004D04FF450710620FDF726FB84F86A316B
:109BD00094F86930012B01D0022BF2D184F86B315B
:109BE000044904F5AF700AF0EBFF002384F8243138
:109BF00010BD00BF27430300406808490388A0F850
:109C00005A3190F8603080F85C3190F8613080F81B
:109C10005D3100F251100AF0CDBF00BF3D4303009B
:109C20002DE9F04F054685B008460C460AF05AFF6C
:109C3000834620460AF050FF804620460AF04EFF39
:109C4000064620460AF04CFF6C6894F8873094F87A
:109C500086A0232B07462ED104F18709BBF1000F04
:109C600047D006F0070210460AF0B7FB68B394F835
:109C70006830984229D094F8241101290CBF94F837
:109C8000261194F864100A4233D0BAF1210F1CD087
:109C900094F861100A4218D1461EF6B2032E05D878
:109CA000013B5549DBB2032B885D0BD940F21F21E4
:109CB0000620FDF7B1FABAF1210F40F0988004F1C7
:109CC0008609CBE7CB5C834213D808F0070108462E
:109CD0000AF083FBB8B394F86930834233D094F828
:109CE0002431012B0CBF94F8273194F865301942C8
:109CF00029D194F82431012B14D11E212846FFF7D5
:109D000053FFBAF1210F11D16B68182283F8092192
:109D1000092283F8862093F8C230CBBB40F2B321EE
:109D20007E20C6E7002384F82431EAE70023284692
:109D300089F800300BF04EF81821284605B0BDE830
:109D4000F04F0BF06FB803AB009320463B460AF090
:109D50004EFB6B68044600BB93F82421012A19D1FD
:109D600001462846FFF720FF89F800406B6803F1A1
:109D70008702914502D1002283F887206B6803F1A6
:109D8000870291454FF000042ED128460BF022F8AF
:109D900000202DE083F82401E8E7B3F88000A3F861
:109DA0004472C0430744BFB247F6FD72974206D9DA
:109DB000282283F8A920284601F024F8DEE793F84A
:109DC00087200D2A02D00A3A012A01D82A22F0E778
:109DD0009DF80C2083F846229DF80D2083F8472239
:109DE000252389F80030C9E783F8C240D0E7022074
:109DF00005B0BDE8F08F00BF94DD0400044B0022E5
:109E000083F822204FF6FF729A84DA841A8570470D
:109E10001E0F0020054B9A8C824201BF002283F85E
:109E200022204FF6FF729A84704700BF1E0F002059
:109E3000014BD884704700BF1E0F0020084B998C3F
:109E40004FF6FF72914206D193F82220012A04D0E6
:109E5000036001207047002303600020704700BFAB
:109E60001E0F0020064B93F82220012A1FBF01205D
:109E7000DA8C83F822009A8408BF0020704700BF64
:109E80001E0F0020014B1885704700BF1E0F0020D9
:109E9000064A918C138D994205D192F8223013B164
:109EA0000260012070470020704700BF1E0F002095
:109EB000094B998C1A8D914201D0002070474FF6C2
:109EC000FF729A8493F82220002AF6D0002283F8A9
:109ED00022200120704700BF1E0F0020054B998CE7
:109EE0001A8D914203BF93F82200B0FA80F0400926
:109EF000012070471E0F002050B90A4A1346012066
:109F000003F8010B0868C2F801008A889A8070473C
:109F1000012805D1034B0A689A608A88D8719A8112
:109F2000704700BF480F002048B90A4B187880B12D
:109F3000D3F80120B3F805300A608B807047012800
:109F400006D1044BD87920B19A680A609B89F4E75E
:109F500000207047480F002020B9054B187800F00A
:109F60000100704701280ABF014B0020D879F6E7AD
:109F7000480F0020F7B500228B888DF80600ADF859
:109F8000043008680C4B8DF80720019D1C780146B1
:109F900003F5AC73D0B2844201D8082009E0D3E9BC
:109FA0000076AE4208BF8F4203F1080302F10102BE
:109FB000F0D103B0F0BD00BF580F002030B5094B01
:109FC00001465C78002203F58173D0B2844201D847
:109FD000082005E013F8015B8D4202F10102F4D183
:109FE00030BD00BF580F0020F0B5254D95F89841C1
:109FF00089B0224605F29911684607F085FE214690
:10A0000068460AF0B9FA0446B8B300EB4001C9B299
:10A0100002A8FDF78FFA601E95F8A161C0B2012475
:10A0200095F8982105E0731CB3FBF2F102FB1133A4
:10A03000DEB206F120030DEB030111F8203C002BEA
:10A04000F1D100EB400220326A4406EB46032B4478
:10A0500012F8187C83F8A27112F8177C12F8162CEB
:10A0600083F8A37183F8A42101F8204C0138AB19BF
:10A07000C0B2FF2883F89941D2D109B0F0BD00BF2A
:10A08000580F002070B5064688B00C46002A4FD005
:10A090002A4A92F8A131D01890F8991121B94FF4B9
:10A0A00080712820FDF7B8F803EB43011144013318
:10A0B00091F8A251E57091F8A35191F8A411617142
:10A0C0000021257180F8991192F89811B3FBF1F0F5
:10A0D00001FB103382F8A13192F8C23123B918493B
:10A0E00002F5DD700AF069FD657905F03F0545F080
:10A0F000400565710D220021684607F099FDE3785F
:10A100008DF80F3023798DF80E3004AA04236946A8
:10A1100030468DF80D5007F02FFB9DF81F3023704F
:10A120009DF81E3063709DF81D30A37008B070BD9F
:10A1300003216018FDF7FEF9D6E700BF580F002095
:10A14000E99F0200044B5A78824286BF1B1893F89D
:10A150004A010020704700BF580F0020044B5A7876
:10A16000824286BF1B1893F842010020704700BF4F
:10A17000580F0020064B00224FF461711A8083F8BB
:10A18000C32183F8C421A3F8C61183F8C221704704
:10A19000580F0020014B83F8C4017047580F00206E
:10A1A000014BB3F8C6017047580F002030B50A4B79
:10A1B0005C7884420ED9184490F802012B3003EBEE
:10A1C000C004A5790D7053F830001060A388938007
:10A1D000012030BD0020FCE7580F00200246074850
:10A1E00010B590F8C34124B1417821B1023002F09A
:10A1F000F3FE204610BD0C46FBE700BF580F0020C1
:10A200002DE9F74F2F4C00921A466378834280461F
:10A21000894654D9231893F8425185F00105E9B1D4
:10A2200093F84A31D3B945F002070135C2B9F907AD
:10A230000BD5062101FB084104EB081001F58571DF
:10A2400082300092FFF71EFF009ABB0733D504EB64
:10A25000081049460230FFF715FF2CE02F46E5E7CE
:10A2600094F8A1614FF0010A002DE0D004EB060B39
:10A270009BF8991199B9009B0192D3B100F018FC99
:10A2800006EB460121444FEA102C81F8A201019A05
:10A2900081F8A3C1000C81F8A4018BF899A194F86E
:10A2A00098110136B6FBF1F001FB1066F6B2013DE4
:10A2B000DAE747F00407384603B0BDE8F08F00271F
:10A2C000F9E700BF580F0020074B5A78824209D99E
:10A2D0001A1892F842212AB9062202FB003000F532
:10A2E0008570704700207047580F0020064B5A7841
:10A2F000824281BF1B1893F83A01B0FA80F04009FE
:10A3000098BF0020704700BF580F002030B50024D0
:10A31000A0F84040B0F8444042F210754C43B4FB02
:10A32000F2F4A0F84440541E05FB0343B3FBF2F3E0
:10A33000A0F84230084BB3FBF2F30133A0F84830E9
:10A34000838F05FB0344436BB4FBF2F459438463EE
:10A35000B1FBF2F2426330BD005A620270B50446AE
:10A360000D4651BB4FF41C7207F062FC012384F8C8
:10A370008E306FF0360384F8D930042384F8DA3055
:10A380006FF03B0384F8DB306F2384F8DC306FF030
:10A390003C0384F8DD30062384F8DF302B2384F877
:10A3A000D830FE2384F80E317F2384F885302023B3
:10A3B00084F8DE5084F8FB3170BD012922D10023DE
:10A3C000A0F8BC3180F8B331144B82691344B3FB5D
:10A3D000F2F3C0F8B03040F6B833A0F8B43011460C
:10A3E000438C7830FFF792FF07F0DEFA30B1E06976
:10A3F000FEF718FF10B984F89F51DDE7002384F8B9
:10A400009F31D9E70229D7D1B0F85232D0F84C2287
:10A410008169BDE870407830FFF778BF7FC3C9011C
:10A42000034B80F870101B680BB100881847704709
:10A4300078000020074B93F900301844142804DCFE
:10A4400010F17F0F03DB40B27047142070476FF0AC
:10A450007E0070472011002007B57F230DF1070013
:10A460008DF8073003F05EFC9DF9073068B10A4AA9
:10A470005078404243FA80F0142808DC10F17F0F36
:10A4800007DB40B203B05DF804FB1846FAE714207E
:10A49000F8E76FF07E00F5E720110020024B002264
:10A4A0001A705A70704700BF20110020054BFF2220
:10A4B0001A70054A016811600179117100221A7041
:10A4C000704700BF221100201800002007B5064B7E
:10A4D000186800901B798DF804306846FFF7E6FF96
:10A4E00003B05DF804FB00BFD40A0500437893B1C4
:10A4F000C2783C2A05D80A49885CC31A5842584198
:10A50000704702F11601C9B2042906D804490A4469
:10A5100012F8AD0CF1E7184670470120704700BFF4
:10A5200098DD04003C2908B5C17003D80B4B5B5C77
:10A53000437008BD01F11603DBB2042B04D8074BAE
:10A54000194411F8AD3CF3E7FF2904D040F259411A
:10A550002A20FCF761FE0123EAE700BF98DD040032
:10A560002DE9FF478A4602A9154699460AF025F8C3
:10A57000064600283CD1039F35B9012487F88D4059
:10A58000204604B0BDE8F087D7F810802946404641
:10A5900008F021FB04460028F2D0174B5B88AB4241
:10A5A00028D3014601AA404608F06EFC97F88D308A
:10A5B0000198002B0CBF514602210AF0DFF90198E7
:10A5C0002A464946033007F09FFB2946404608F0DB
:10A5D00047FB044618B97D212B20FCF71DFE02A87D
:10A5E0000AF0A1FA039BA3F8AA6187F88D60C7E778
:10A5F0000124C5E73446C3E724110020024B987DAF
:10A60000C04300F00100704724110020034B987DE7
:10A6100080F00200C0F34000704700BF241100200A
:10A6200083230B70014B1B78CB7070473C110020CB
:10A630002DE9F7434769814638460D4608F016FC78
:10A64000014618B9FC211020FCF7E6FD01AA3846A6
:10A6500008F01AFC064610B94FF48071F3E7204B5E
:10A6600001991B68B9F8000001F103087BB9B9F83A
:10A670000030AB80002301986B72EE800AF086F9FF
:10A6800001280ED002280CD04FF48D71DBE7324642
:10A690004146984704460028E9D1204603B0BDE86A
:10A6A000F0832872384608F0F7FB044610B940F2F0
:10A6B0002311C8E7FB2E02D94FF49671C3E728682F
:10A6C00010B940F22D11BEE73246414607F01CFB9F
:10A6D000384608F029FB0028DFD140F23111B2E7FB
:10A6E000800000202DE9F347DFF85C81824689462F
:10A6F00005270025D9F8103053B11B7A1BB97E21EC
:10A700001020FCF789FDD9F81040B4B9002070E0A2
:10A71000D9F80440237A012BF8D0EFF3108372B6F6
:10A72000D9F804201268C9F8042003B962B6C9F840
:10A730001040237A0BB9A421E2E7267AF6B22772F9
:10A74000731E0B2B6DD8DFE803F069061C33666CB3
:10A750003C6C6C6C6C57636813B94FF4D471CFE7E1
:10A760002046514698470420EFF3108372B6227AB0
:10A77000052AD1B25FD12572C9F81050ABB962B6C3
:10A7800013E0636813B940F2B111B9E751462046AE
:10A7900098470346C3F30723012BADF80400C0B26A
:10A7A00042D0022BE0D1C9F810500028A2D020E0FE
:10A7B000636813B940F2B911A2E720469847002018
:10A7C000D2E763680BB9B3219AE70B228AF800201D
:10A7D00019881869AAF80310012200248AF80220B7
:10A7E0008AF805208AF8064008F09EFAC9F8104059
:10A7F000042002B0BDE8F087606810B940F2E111B2
:10A800007EE7D8F8003051469847034660B1C9F852
:10A8100010500220EDE74FF4F97171E740F2F511A5
:10A820006EE74FF4FC716BE726720028E1D1002B34
:10A830007FF460AF6AE711B940F2192160E7002B9D
:10A840007FF458AF62B655E77C00002038B5134C52
:10A85000231D14220021184607F0EAF903460125BA
:10A86000257414220433002104F11800C4E90133D3
:10A8700007F0DEF984F82450094A04F11C03C4E906
:10A8800006330023E362236384F83430C4F83530A0
:10A89000C4F8393084F83D30136038BD3C110020D5
:10A8A0008000002010B5084C2378FF2B04D04FF413
:10A8B0009D711020FCF7B0FC06F0A6FF2070BDE8EB
:10A8C0001040FFF7C3BF00BF1D00002010B5034CB0
:10A8D000207806F0B5FFFF23237010BD1D00002077
:10A8E000014B187806F0BCBF1D000020014B024A46
:10A8F0001A6070477C00002031A6020010B506499E
:10A900000446FFF7EFFE28B920460449BDE8104091
:10A91000FFF7E8BE10BD00BF541100204011002019
:10A9200010B51346027A22B140F295211020FCF7AF
:10A9300073FC0A46BDE81040014601480AF01AB906
:10A9400040110020044890F834301BB903492C30E2
:10A950000AF02DB9704700BF3C110020674B03007F
:10A960000346064890F83E203AB190F83D2022B9BF
:10A9700000F8353B02490AF01AB970473C11002033
:10A9800021A6020010B50A46037A23B140F29D21A8
:10A990001020FCF741FC0146BDE8104001480723A8
:10A9A0000AF0E8B8541100201346027A0AB1037283
:10A9B00070470A46014601480AF0DCB84011002001
:10A9C0001B234FF01B128384038482618382C26045
:10A9D000038539B94FF4A473034AC3844384C26125
:10A9E000C3820261704700BF480148010346F0B4CA
:10A9F000B3F85420B3F84840B3F84460DF8FB3F89D
:10AA00004250944228BF14460846B3F84C20B3F88D
:10AA10005610DC878A4228BF0A46B3F84610A3F8CE
:10AA20004220914238BF1146A64238BF2646A7426F
:10AA3000A3F84460A3F846101FD1AA1A18BF012238
:10AA4000B3F84A50B3F85040B3F852709E8FB3F841
:10AA50004010A54228BF2546B3F84E409D87BC4212
:10AA600028BF3C46AE42A3F8404002D1A14200D1EB
:10AA70002AB1F0BC03490AF0A3B80122E0E7F0BC18
:10AA8000704700BFC74B03000B8BA2F80B304B8BFA
:10AA9000A2F80D308B8BA2F80F30CB8BA2F80900F7
:10AAA0000249A2F8113010460AF084B8174C03008E
:10AAB000094AD2E90003434083EAB01181EA432105
:10AAC0004FEAF3435360054B116058434FEAF0607F
:10AAD00000EB8000704700BF7C110020BB79379EDF
:10AAE000094AD2E90003434083EAB01181EA4321D5
:10AAF0004FEAF3435360054B116058434FEAF0604F
:10AB000000EB8000704700BF20000020BB79379E1B
:10AB100010B50A4C09480821FCF70CFDD4E90023C4
:10AB20001343F7D0064CFFF7DBFF2060FFF7D8FF99
:10AB3000236860600343F6D010BD00BF20000020F2
:10AB40007C110020174B184A9A60184A5A60184A1C
:10AB50001A60184A9A62184ADA62184ADA60184A81
:10AB60009A61184A1A63184A1A62184ADA64184A2B
:10AB70009A64184A5A62184B184A9A60184A5A62DC
:10AB8000184ADA62184A1A61184A5A61184A9A61D0
:10AB9000184A1A63184A9A64184ADA64184A9A6377
:10ABA000704700BF84000020DB4E0300114F0300FC
:10ABB000894F03000D510300615103002DAF0200C6
:10ABC0007751030081B1020011B002004552030029
:10ABD0006152030059B002008C010020FD4E0300B9
:10ABE00017520300995103003D510300BD5103006A
:10ABF000B1AF0200E75203008F52030081520300FD
:10AC0000FD510300044B054A5A65054B054A1A6578
:10AC1000054A5A65704700BF840000204950030070
:10AC20008C0100202F500300B9500300054B064A49
:10AC30009A65064A1A66064B064A9A65064ADA6516
:10AC4000704700BF840000206F440300219C020075
:10AC50008C010020C143030017450300252A70B56D
:10AC600005460C4618D8012A19D9023A232A16D8C3
:10AC7000DFE802F01A15252424331535152439444C
:10AC80004815154D242467676D7415151515151590
:10AC90001515151515808990FF2A00F0828040F265
:10ACA00066415120FCF7B8FA02784368012A02D1C4
:10ACB00093F8103101E093F81931237170BD4168A8
:10ACC000204601F5E37109F0CAFE6B682046D3F80F
:10ACD0000411BDE8704009F0C4BE4368E8E7BDE870
:10ACE000704000F017BA0E230B7159234B710023EB
:10ACF0008B71F323CB7110230B72DFE7436893F85A
:10AD00000A31DAE7BDE87040084600F0F3B903788D
:10AD1000466873B996F810315BB196F80D1120466C
:10AD200009F0EFFE96F80C112046BDE8704009F0DE
:10AD3000ECBE96F80B11204609F0E3FE96F80A11D6
:10AD4000F2E741682046BDE870400AF07CB84368ED
:10AD500093F82621227193F8273109E0436893F88C
:10AD60002421012AF4D093F864200A7193F8653005
:10AD70006371A3E7104B1B68002B9FD00246232072
:10AD8000BDE8704018470C4B1B68002B96D002465C
:10AD90002420F5E7084B1B68002B8FD002462520A6
:10ADA000EEE74368204693F83F22D3F84012BDE80F
:10ADB000704009F0EFBD00BF940200203C2803D88A
:10ADC000064B53F82000704700F11603DBB2042B4A
:10ADD00001D8AD38F4E70020704700BF84000020A0
:10ADE0003C2803D8064B53F82000704700F11603A7
:10ADF000DBB2042B01D8AD38F4E70020704700BF68
:10AE00008C010020F7B545682E6904464FF6FF77A0
:10AE10000DF102010DF101023046ADF8027007F0AC
:10AE20003BFF01A9304607F05AFF40B1019808F0F6
:10AE300031F8616800220272FFF7A4FDE8E70449D7
:10AE400005F1A00003B0BDE8F04009F0B3BE00BFBB
:10AE5000774E0300F0B5044685B00D46FF2600F896
:10AE6000896C10F88A3CF3B1184F3B781BB148212C
:10AE70001F20FCF7D1F90C21381DFCF75BFB3E705D
:10AE8000002304F8893C2A46072302F8033BD4F840
:10AE90000930C5F80330D4F80D305360D4F81130C0
:10AEA000936005B0F0BD01A80C21FCF743FBA4F5AD
:10AEB0001673039AC3F8042101AB03CB44F8920C38
:10AEC00044F88E1C04F88A6CDAE700BF8411002075
:10AED00010B5054C23782BB90C21201DFCF72AFB5B
:10AEE000FF23237010BD00BF84110020024690F89C
:10AEF000CE31BBB990F8CF3103F0FF010BB1002088
:10AF00007047094B18780028F9D01970D968C2F831
:10AF10000411043303CBC2F8C601C2F8CA11FF23DF
:10AF200082F8CE31012070478411002070B542684C
:10AF300092F8873004460D463BB1132B05D0113BE8
:10AF40000B2B94BF0820012070BD92F8C83013B9B4
:10AF5000204609F035FF6168284601F5DF7109F0E8
:10AF600074FD2846666809F077FD6168C6F800013F
:10AF70000B88A1F86132284601F2632109F05DFDDA
:10AF80006168284601F26B2109F05CFD63680025C9
:10AF900083F8CE516068054900F5167009F007FE88
:10AFA0006368152283F887202846CDE755AE020056
:10AFB00038B5436893F887201C2A044604D04FF420
:10AFC000DE711F20FCF728F993F8C8101D880022B5
:10AFD00083F8C72003F5C97069B10B4983F8C8200D
:10AFE000A3F89C5183F89B2109F0E1FD63680022DE
:10AFF00083F8872038BD012283F89B11A3F89C5168
:10B00000024983F89E21EFE7F9500300EB5003005B
:10B0100038B54568AB6F13F0010417D14A680C4B83
:10B02000896813400B4AC5F8D830C3F3076343F06F
:10B0300008030A4085F8DB30C5F8DC2009F0C0FEC3
:10B04000AB6F43F00103AB67204638BD0120FCE73E
:10B050002FC904F76FDB000610B5406890F8863002
:10B06000042B2BD14A68174B8C681340C0F8D8309A
:10B07000154AC3F3076343F00803224080F8DB302E
:10B080000023C0F8DC2080F8C23080F8863090F8C9
:10B09000742102F0FF049AB90388A0F8763180F891
:10B0A00075414B68C0F878318B68C0F87C3107492E
:10B0B00000F5B67009F07BFD204610BD0124FBE7CA
:10B0C0001C46F9E72FC904F76FDB0006DB510300CC
:10B0D000406890F8743153B90388A0F876311A2388
:10B0E00080F87531024900F5B67009F060BD70470F
:10B0F000DB51030010B50446FEF72EFD034A044B56
:10B1000002400B406260A36010BD00BF2FC904F76E
:10B110006FDB000637B50C464568FEF71DFD084A93
:10B12000084B0A4095F8D8100192034000930B4059
:10B130008DF800306B4603CB6060A16003B030BD7A
:10B140006FDB00062FC904F7DB0410B5144604D5E5
:10B15000037D13B10023436310BD436B013343638D
:10B160000AF0A2F8D0E90D239A42F5D300234363F5
:10B1700002492046BDE8104009F022BD37520300C5
:10B1800070B5446894F88630012B06460D4602D00F
:10B19000A36F9A073ED494F8C9309B0719D4284668
:10B1A00009F061FC84F8D300B5F80530A4F8D43078
:10B1B000B5F80730A4F8D63094F8C93043F002024D
:10B1C000D80784F8C9200FD5134904F1CA0009F043
:10B1D000F7FC94F8C930D90711D4A36F9A0708D5A2
:10B1E00055214020FCF718F894F82A31002BEBD1B8
:10B1F000EFE743F00203A367304609F0E1FD94F85E
:10B200008630012B4FF0000003D184F8860084F8CB
:10B21000C20070BD0120FCE7C952030070B545684B
:10B220000446FFF719F9054B85F885001B680146B0
:10B230001BB12046BDE87040184770BD9C0200203D
:10B24000024B1B6803B11847704700BF98020020EB
:10B25000F0B5204D2B7800241470CBB3013B6F6800
:10B26000DBB21D1B012D0BDC07EBC40557F8346066
:10B270006D688D4208BF864212D114700120F0BD66
:10B280001D196E1007EBC60E57F836C0DEF80460C5
:10B290008445C5F347058E412CBF2B462C46E0E77D
:10B2A000B04271EB050502D214700020E7E707EB0E
:10B2B000C30457F8335064688C4208BF854201D1FB
:10B2C0001370DBE7A842A14128BF01331370ECE7FC
:10B2D0001846D4E7A411002010F0070208B503D0E7
:10B2E00063214820FBF798FF18B1034B197258608F
:10B2F0001A70C80008BD00BFA4110020014B002235
:10B300001A707047A4110020014B187A704700BFD3
:10B31000A41100202DE9F7430AF007F80DF1070208
:10B3200006460D46FFF794FF98B910490A780B7A44
:10B3300093420ED04C6813466FF060479DF80700AB
:10B34000984209D304EBC003C3E9006501320A70D7
:10B35000012003B0BDE8F083D81904EBC000D0E9A8
:10B360000089013BC0E90289DBB2E7E7A4110020B4
:10B3700037B509F0DAFF0DF10702FFF769FF044660
:10B38000A0B10C4A9DF8070013785568013BDBB269
:10B3900013701A1AD2B2411CD200834238BF002265
:10B3A00005EBC10105EBC00006F0FEFB204603B033
:10B3B00030BD00BFA41100200A46822302F8033BDF
:10B3C00004480368C1F8033043685360836893609E
:10B3D000704700BFAD11002002481622002106F080
:10B3E00027BC00BFAD11002082B002AB03E903000F
:10B3F0000B48437D93B1530610D50A880280D1F8DB
:10B400002022B1F880304260D1F8242205498260C0
:10B41000438002220C3002B0FFF7C6BA02B0704778
:10B42000AD110020B9B3020038B5074D044600F154
:10B430005101286809F018FA94F850102868BDE8FE
:10B44000384009F01FBA00BFC4110020F8B5044607
:10B450000E466588407F15F0040508BF294613464F
:10B4600018BF04F15F013246FEF7CAFEC207054667
:10B470000BD5012384F85030607FFEF725FF036869
:10B48000C4F851308388A4F85530AB070CD5094E69
:10B490000127306884F85E7004F15F0109F0EBF970
:10B4A0003068394609F0F7F985F00400C0F38000F0
:10B4B000F8BD00BFC411002038B5C38D0E4D013357
:10B4C000C385AB7C04462BB102F01EFC01F0B6FD37
:10B4D0000023AB7400232B7194F871302BB1012140
:10B4E0002046BDE8384008F03BB9637C13B1E28DDB
:10B4F0009A42F4D20021F3E7C411002010B5094CA0
:10B500002379012B02D02379022B05D1A37C1BB117
:10B5100002F0FAFB01F092FDE069BDE81040FFF790
:10B52000CBBF00BFC411002070B5294C2379012B7B
:10B5300007D02379022B04D040F638412D20FBF7A9
:10B540006BFEA0B90125A37C1BB102F0DDFB01F06D
:10B5500075FD002D3AD0E06908F07AF8002830D067
:10B5600002F0BAFA236ABDE870409B681847216868
:10B57000E26911F8095B02F15103E80992F85020E1
:10B5800008F0DCFF0028DDD02068002109F0A8F9D0
:10B590000028D7D02379E069012B05D02379022B2D
:10B5A00002D040F61141C9E72379226A03F18043B2
:10B5B0005269013B05F00F0152F8233098470546C8
:10B5C000C1E7E069BDE87040FFF776BF70BD00BF1E
:10B5D000C4110020074A0346D06903B909B9FFF72F
:10B5E0006BBF1379126A03F180431269033B52F86F
:10B5F00023301847C41100202DE9F043032985B0FA
:10B60000054690467BD090F870300529DBB202D118
:10B610004288D0075FD5002B5DD10127DFF8E89085
:10B6200099F81260B6B108F0BEFF082888F800004B
:10B6300014D002AA0DF10701FEF7B8FD20B940F6BB
:10B64000A4612D20FBF7E8FD9DF8070002A909F091
:10B6500078FE064698F80030082B08D1D9F800107B
:10B6600011F8030BC0F3801009F06BFE0646D9F801
:10B67000001095F8572011F8030B05F15803C0F39B
:10B68000801008F05BFFD9F80010044611F8030B96
:10B69000C0F3801008F07DFF8146FEF727FE40B121
:10B6A000B9F1080F1CD04846FEF74CFD80F00100B0
:10B6B000C0B298F80020082A16D09CB96B7F991A5E
:10B6C0004B424B416A88520706D420B99EB9EB7CA5
:10B6D0009BB1BB4211D00023184605B0BDE8F083F2
:10B6E0000020E6E70123EDE714B180F00104E4B2A5
:10B6F00004F00103E6E73346EEE70123ECE7438875
:10B700009B07E8D5022789E7C41100202DE9F04FF7
:10B7100085B008230DF10702052104468DF8073096
:10B72000FFF76AFF064620B90026304605B0BDE89F
:10B73000F08F744F3968FA7C11F8030B07F114038A
:10B74000C0F3801008F0FAFE80460028ECD13B6878
:10B75000216A184691F88E2010F8035B02EA551210
:10B7600002F0010281F88E20D3F80320C1F80320F3
:10B770008288A1F807201946226A11F81F0BC0F32E
:10B780008010907009798DF80C10D3F80F10D3F851
:10B790001F00D161597D0290187D090441EA002102
:10B7A000D87C01435162B3F8191082F8728040F2DC
:10B7B000E24909FB01F191619D7DC5EB451105EB66
:10B7C000810505EB85056D009585B3F8171009FB1C
:10B7D00001F19162B3F81B101184B3F81D1051846C
:10B7E00093F8243003F01F015B0982F89A1082F865
:10B7F000A031256A94F912B002A905F18E0008F073
:10B800008BFF40F20113A5F868304FF0FF0A85F86E
:10B810006AA0414605F13000FFF7D2F859462846A4
:10B82000FEF7FEFD236A84F87B801A88A4F87C204A
:10B8300084F899A04FF6FF72A4F89A209A69B2FB97
:10B84000F9F2A4F892201A8CA4F894205A8CA4F847
:10B85000962093F8A02184F89820227F9DF8070075
:10B8600004F186015AB394F85020012A27D194F8A4
:10B87000562002F0C002402A21D1D4F85120C4F849
:10B880008620B4F855208A809A7884F87F2008288A
:10B8900003F1030504F18002D3F8033004F18C01B5
:10B8A00027D0C4F88C30AB888B8004F17F01FEF781
:10B8B0007DFC40B940F697312D20FBF7ADFC00220E
:10B8C000C4F88620DFE794F87F3043F0020384F861
:10B8D0007F3004F172000C4909F069F90B4B206AC2
:10B8E0001B6800223A71002B3FF41FAF2146984796
:10B8F0001BE7C4F88030AB8893800023C4F88C30F9
:10B900008B80E6E7C41100206F530300A4020020DF
:10B91000032973B5044604D0052952D0012002B092
:10B9200070BD08230DF107028DF80730FFF764FEA4
:10B930000028F3D0237C284D03B39DF8070094F82A
:10B94000BE30DBB9237884F8BF30082804F1C10287
:10B9500028D004F1C001FEF729FC20B940F61A7185
:10B960002D20FBF759FC94F8C03043F0020384F813
:10B97000C0301A4904F1B60009F019F92B68062203
:10B9800004265A701E702046FFF74EFD94F84020A2
:10B99000E16B286808F095FF28682E7102F03CF9E9
:10B9A0000020BCE72868034613F8031BC1F380118D
:10B9B00084F8C010D0F80310C4F8C1109B8893809D
:10B9C000D7E7074B1B6823B1984780F00100C0B24E
:10B9D000A5E71846A3E700BFC41100205753030092
:10B9E000A0020020F8B504460F4619B300F128055F
:10B9F000284609F0A3FEA0B963881A072ED5284669
:10BA000009F0B3FE0646284609F098FE301AC0B287
:10BA100009F0BBFE444A936818449060284609F038
:10BA200069FE284609F06BFE01F0EAFF2179252026
:10BA300001F0EEFE3C4D94F85E2028680023037070
:10BA400043706388103B0D2B5ED8DFE803F0595D2F
:10BA5000550C5D405D5D5D5D5D5D5D402046BDE812
:10BA6000F840FFF729BD06234370202303702046CA
:10BA7000FFF7DAFC638823F008039BB2152B05D08F
:10BA800094F83820616B286808F00CFF286802F0F1
:10BA9000C3F8032321792B71002001F0B7FF06467C
:10BAA00007B9E86063881B0704D509F06BFE3044D2
:10BAB000C4F8D8006388103B0D2B30D8DFE803F0C2
:10BAC000322F29292F292F2F2F2F2F2F2F290C23CA
:10BAD00043702123037042B104F15F0108F0CBFEF3
:10BAE0000121286808F0D7FEC1E704F1580108F0E9
:10BAF000C2FE94F85710F4E7062303704370B6E7CC
:10BB0000022303700623F9E740F21F612D20FBF7A3
:10BB100083FB21790120BDE8F84002F00FB940F61F
:10BB2000AB41F3E7F8BD00BFC411002038B543882E
:10BB3000102B044604D1BDE838400121FFF752BF65
:10BB40000B4DAB7C23B101F05FFA402002F0D0F83E
:10BB5000286802F061F8608810F0040002D12179B1
:10BB600002F0ECF8002002F09FF801232B7138BDA1
:10BB7000C4110020024B0121D869FFF733BF00BF79
:10BB8000C411002010B5134CA37C1BB102F0BCF80B
:10BB900001F054FAE06907F05BFD70B12379E069C8
:10BBA000012B0FD12379226A03F18043D268013B34
:10BBB000BDE8104052F823301847E069BDE8104056
:10BBC000FFF77ABC2379022BECD040F63B312D20D5
:10BBD000FBF722FBC411002010B50948037903F0DC
:10BBE000FF0453B918222146043006F021F802F070
:10BBF0008BF801F023FA204610BD0C24FBE700BFB0
:10BC0000C411002010B5094C002323712060FFF7F8
:10BC1000E3FF20B140F2EA212D20FBF7FDFA236A71
:10BC200013B940F2ED21F7E710BD00BFC4110020A9
:10BC3000014B024A1A627047C411002018BF02006B
:10BC4000034B044A1A60044B044A1A60704700BF51
:10BC5000A00200200DB70200A40200209D91020066
:10BC60002DE9F041067DB31EDBB2012B04468CBFEB
:10BC70004FF000084FF001087EB3B71E18BF012730
:10BC8000012B36D800F1580190F8570008F081FCDC
:10BC9000082805462DD0FEF761FA58BB657784F871
:10BCA0001C8084F85070FEF77BFA054609F08EFF81
:10BCB000174BA5FB0335181845EB01050022C4E915
:10BCC000120584F85E2011462046FFF7BFFB70B9CD
:10BCD00040F275412D20FBF79FFA3746082504F105
:10BCE00051010020FEF720F90028D7D10020BDE83F
:10BCF000F0810825022EF2D0E37E002BF6D0D4F896
:10BD00001530C4F85130B4F81930A4F85530C5E7EF
:10BD100040420F00F0B5464E327987B0044602F03B
:10BD2000FF0312B90278FF2A04D140F6A2112D2098
:10BD3000FBF772FA3382B3607371B37180F87130BC
:10BD40003C4B02933C4B03933C4B0493336A02A855
:10BD50005B68059301F058FF01F098FD01F0D4FFF6
:10BD600001F06CF9364801F025FE364801F046FF37
:10BD700004F12800019009F0BDFC019809F0BFFC16
:10BD800001F03EFE2179252001F042FD94F91200D8
:10BD900001F00AFE04F13401206B07F076F904F19A
:10BDA0003C010746206B07F095F9054617B194F85A
:10BDB0002430C3B90DB194F82550237F13B963889B
:10BDC0005B0709D5D4E912126FF000439A4208BF0D
:10BDD000B1F1FF3F09D185B930680330FEF7FEF9B4
:10BDE000B07407B0F0BD0125E7E709F0EFFED4E934
:10BDF0001223904271EB0303EDD3012205EA020105
:10BE00002046FFF723FB68B1FEF7CAF9054609F0A3
:10BE1000DDFE0D4AA5FB0232181842EB0102C4E90F
:10BE20001202D9E7002DD7D040F6D7117FE700BF27
:10BE3000C411002085BB020029B50200D5B502005F
:10BE4000D6BE898E5555550040420F00F7B50446C1
:10BE5000FFF760FF00212046FFF7C4FDA36E0BB182
:10BE600001221A606388DB0721D50023114E256A61
:10BE7000CDE90033FF23F37405F10A076846FBF7A9
:10BE80001BFEA0B9009CA542F8D06A7A607A3B46B6
:10BE900004F10A0108F052FB0028EFD0A378F374F4
:10BEA000D4F803007061044BB4F807209A8003B003
:10BEB000F0BD00BFC4110020D8110020024BD86192
:10BEC0001B6A1B68184700BFC411002043881B076A
:10BED00010B5044611D5036A0A493C2280F87B203C
:10BEE0001B88A0F87C30FF2380F899304FF6FF7351
:10BEF000A0F89A30723008F05AFEFF2384F87130AF
:10BF000010BD00BF6F53030011B902002DBB02002A
:10BF1000C7530300C15303004DBE0200FDB402002D
:10BF200075BB020014BF02000CBF020008BF020074
:10BF30000138022808B503D9C3212F20FBF76CF97B
:10BF400013290A4B05D811290CD8102907D0D12163
:10BF5000F3E71529FBD103EB4003D88801E033F860
:10BF6000100008BD03EB40039889FAE714DE0400D3
:10BF7000F8B52F4B1A88402842EA00021A8005D1F2
:10BF800004219868BDE8F840FDF736B8802801D153
:10BF90000521F6E700F00302032A04D140F60E2142
:10BFA0003120FBF739F910F0020418BFD960C5073A
:10BFB00005D5CA781961062A0DD00B2A18D02CB1E4
:10BFC000DA68D278052A1FD00B2A2AD0820644BF0D
:10BFD00008221A75F8BD9A6892F887101829EED1D0
:10BFE000002600270121C2E9386782F88B10E6E7B6
:10BFF0009A6892F88710122901BF002182F88B10ED
:10C00000012182F8C810DAE79A6892F88710162999
:10C01000DCD100240025C2E93A45012182F88C10C8
:10C02000D4E79A6892F887101129CFD10021F5E75B
:10C03000E811002013B5044601A8FDF7FFFE20B962
:10C0400040F60C013120FBF7E7F82222002101988D
:10C0500005F0EEFD0198032108F090FC01980378AB
:10C0600023F0100303702146FEF75CFA019906489D
:10C070002246FEF7F3FDFDF7F5FE10B940F6160176
:10C08000E0E702B010BD00BFEC11002070B5274CF6
:10C09000A36893F8466293F84752002E3FD193F875
:10C0A0006810002D3DD193F8692083F8681083F85B
:10C0B0006920FF2283F86A201D4B1B680BB1A06822
:10C0C0009847A36893F82431012B02D056EA050360
:10C0D00003D018480021FDF767FDA068303008F054
:10C0E000E6FD0546A06800F23511FEF77FFCA0686A
:10C0F0000621FCF781FFA068303008F0D8FD8542AA
:10C10000044610D202F0EAFD0146601B322838BF17
:10C11000322004F075FEB0FA80F0400970BD31465F
:10C12000BFE72A46C1E70120F8E700BFE811002079
:10C13000AC020020EC110020002908BF1F211728A5
:10C1400010B503460BD80D280DD90E3809280AD88A
:10C15000DFE800F00B0909090B090B09110BA0F12D
:10C160002303022B23D9002010BDBDE8104000217D
:10C17000184609F00EBB114CA36893F88620212ABB
:10C1800009D1201DFDF710FDA368002283F8862049
:10C1900083F8C220E7E72E2AE5D193F88730A3F190
:10C1A0002002062AF0D92E2BEED02A21E9E7044BF3
:10C1B0001B68002BD7D0BDE810401847E8110020BD
:10C1C000A8020020114B09790246986890F8863041
:10C1D000212B11D02E2B0FD0282B0FD0042B0FD0BA
:10C1E0000F2B0FD01D2B0FD090F88730232B14BFAF
:10C1F000FE201720FFF7A0BF1620FBE72320F9E75A
:10C200000E20F7E71220F5E71420F3E7E8110020ED
:10C2100008B50C4B9B6893F80E21FE2A04D040F61B
:10C220001B013120FAF7F8FF83F80E0111B9A3F8CA
:10C23000C41008BD0022A3F8BE20012283F8C2204A
:10C24000F7E700BFE81100200D4B1A7D9AB940B9FD
:10C250009B68B3F858109A8F91420FD81846FCF794
:10C26000BDBE1A88120708D59B6893F88800073866
:10C2700018BF01207047002070470120704700BFA1
:10C28000E811002070B543689B6F13F0300F86B043
:10C2900004460D4651D1084608F0FFFB30B9E97855
:10C2A000204606B0BDE8704008F0BCBD2846666870
:10C2B00008F0EFFB0590284608F0E7FB04902846BD
:10C2C00008F0E9FB0390284608F0E1FB3036DDE991
:10C2D000033200900599304608F0FBFC184B1A8891
:10C2E00092070ED5DA68D278142A0AD16268936F61
:10C2F00043F010039367204608F062FD002006B06B
:10C3000070BD626892F886101D29EFD092F81B214B
:10C31000002AEBD1626892F81A21002AE6D16168FE
:10C320008A6F42F020028A679A68114602F59F726E
:10C3300031F8300BFEF7A8FBDDE70120DFE700BF97
:10C34000E811002010B5154BDB681979436893F8A4
:10C350008620092A09D193F809218A4205D10022B1
:10C3600083F8862083F8C22010BD9A6F12F008046B
:10C3700006D022F00802BDE810409A6708F02ABDF6
:10C38000FF2905D1332283F8862083F83C42EBE76E
:10C3900040F204513120FAF73FFF00BFE8110020BE
:10C3A00010B50B794268172B92F8862004460CD8FA
:10C3B0000D2B0CD9A3F10E01092908D8DFE801F0F3
:10C3C00009070707090709071009232B26D00020B2
:10C3D00010BD22460121BDE81040184609F0D9B928
:10C3E000212A01D02E2AF2D1204608F0E0FC636811
:10C3F00093F88720222AEAD093F8D92022F001026C
:10C4000083F8D920626892F8D93023F0080382F8C3
:10C41000D9301A212046FDF7C7FBD8E7282AD6D104
:10C42000024B1B68002BD2D09847D0E7B002002007
:10C43000F7B57F4C0546002840F0AC8023881F07E5
:10C4400027D5A36893F80E21FE2A04D140F2765135
:10C450003120FAF7E1FEFE2283F80E2193F88720BF
:10C460001A2A07D183F8C700201D08F0B3FCA3687F
:10C4700083F88750A36893F88620202A32D0332A85
:10C480003ED093F88820072A02BF0222627583F803
:10C490000E212388DE073CD42388580700F1A980A9
:10C4A000990713D5E368DE780D2E00F0AA80112ECF
:10C4B00000F0A980072E00F0A8803046FEF790FC1F
:10C4C0000346002800F0A3805A4898472388DA06DC
:10C4D00060D5A36893F887200A2A5BD10B2283F8E2
:10C4E000872057E093F88720A2F12001062901D97F
:10C4F0002E2A03D12E2283F88620C2E72122FAE7D2
:10C50000012283F83D22002283F8862083F8C2208E
:10C51000B7E7A368276993F88730113B0B2B0BD83B
:10C52000FB78023BDBB2092B7DD8012202FA03F330
:10C5300040F23332134276D03846FDF7D7FFFE780B
:10C5400020B931463B4808F06DFC45E0012E01D989
:10C55000162E0FD1A36893F8860008F050FC48B15E
:10C56000A36893F88620202A04D0212A0ED12E22F7
:10C5700083F88620112E34D026D8072E33D00D2EE6
:10C5800033D03046FEF71AFC034621E0162E0CBFCE
:10C5900020250225237D1B0713D5A36893F8873038
:10C5A000113B0B2B41D9002601A903200196FBF773
:10C5B000E3FE019B2BB11E720C22A1680198FEF7CD
:10C5C000AFF9284603B0F0BD142EDAD11A4B1B6820
:10C5D0006BB121691748984700283FF45DAF0546C5
:10C5E000D8E7164BF5E7164BF3E7164BF1E7F9786A
:10C5F000A8E7A26892F88820062A04BF0122627583
:10C600004EE7114B60E7114B5EE7114B5CE7FF2EE5
:10C6100006D1A268332182F8861082F83C0255E7E1
:10C6200040F26A5114E70825B4E70825C9E700BFBE
:10C63000E8110020EC110020B8020020A7580300E8
:10C64000A1C30200C5C102003758030055580300BA
:10C6500045C302002DE9F041A44CB4F800800E4619
:10C66000A16818F4007F0ABFB1F8B8200023013296
:10C6700001F1780507461ABFA1F8B83081F8B73143
:10C68000A1F8B820284609F0FDF828B1434601F585
:10C6900096722846FEF758FD238803F4C06333B131
:10C6A000A06890F88A30002B4AD0032B4ED0A168A6
:10C6B000238891F88A20012A04D11D0544BF022253
:10C6C00081F88A20002F40F0AC8058065DBFB1F899
:10C6D000D021013292B23A46A1F8D02103F00A02E9
:10C6E0000A2A0DD1E268D278022A09D123F0080380
:10C6F00030462380FFF79CFE08233043C6B22380D8
:10C700003046FFF795FEA36893F80E213043FE2ACA
:10C71000C6B24ED1002E4CD193F88820063A012A99
:10C7200047D993F81831B3B1A36893F81921A3F846
:10C73000BC6083F8102101210220FFF769FD38E079
:10C74000012180F88A10FCF757FCB0E7022380F83B
:10C750008A300121F7E7A06890F88730A3F110052F
:10C76000EDB20C2D11D8113B0B2B00F25181DFE8FB
:10C7700013F007014F014F014F010A0112014F0150
:10C780004F014F014F014F013D01836FD90702D582
:10C7900031460920D1E79A0740F19A8031460C20B2
:10C7A000FFF736FDA26892F8C93043F0010382F822
:10C7B000C930A568B5F8B03195F8B4810133A5F852
:10C7C000B031B8F1000F00F0E181FBF7C7FD10B107
:10C7D0000023A5F8B031A16891F88A80B8F1010F63
:10C7E00040F20A8291F88830072B40F0E781B1F8D7
:10C7F000B830022B40F20082B1F8BA500135ADB228
:10C80000B1F880302B44A1F8A83191F8B531002B54
:10C8100000F0F6810123A268B2F880100B44A2F860
:10C82000AC312288A36855065BBFB3F8BC21B3F8CE
:10C83000AE1100225218A3F8BC2193F818312BB97D
:10C84000A36893F88830063B012B07D8A368B3F898
:10C85000BC20B3F8AE110A44A3F8BC20A36893F837
:10C86000C20030B1B3F8BE20B3F8AE110A44A3F849
:10C87000BE2093F9C6100029C1BFB3F8C420B3F895
:10C88000AE515219A3F8C42093F8A9205AB9002F29
:10C8900040F04B82627D022A40F0008293F8102122
:10C8A000062A18BF1622A36893F8A8302BB9A368EC
:10C8B0000F4883F8A920FEF7A5FAA06809F033F81D
:10C8C000A368002283F8B321BDE8F041FDF7F0BA78
:10C8D000590702D5314613202FE71A070AD590F8D9
:10C8E000083180F810313146072026E7E811002092
:10C8F000EC11002013F0300F3CD090F81B31002BCE
:10C9000040F01982A36893F81A31E3B1A06890F857
:10C910008730252B00F58D7100F2462228D090F843
:10C920008630A3F1250CDCF1000343EB0C0308F087
:10C93000C2F9A268936F23F0200343F010039367BA
:10C94000002382F81A31A068836FDA0640F1F38180
:10C9500000F23511FEF74AF8A368B3F85220A3F8A5
:10C960001021B3F85620A3F8122100211520E4E687
:10C970000123DCE75B0640F1DE8100212420DCE6B8
:10C9800000210B20D9E6FEF7B1FA00283FF411AFE1
:10C9900000210420D1E690F83832012B08D1002183
:10C9A0000520FFF735FCA368002283F8382200E752
:10C9B000A36893F83832022BD8B27FF4FAAEA3689A
:10C9C00093F8C85006221DB183F810210021E8E732
:10C9D000B048032108F00DFAA36893F8D83013F09B
:10C9E000040F294614BF11200D20DAE7002106208C
:10C9F000A3E693F82421022A02D1002117209CE605
:10CA000093F82421012A03D193F82531002BF4D087
:10CA1000A36893F886206AB993F88720103A0C2A05
:10CA200040F2998193F8B620002A00F09481012108
:10CA3000122082E6092A40F08A8193F8092183F8BE
:10CA40001021012150E7A36893F82A319BB1A36814
:10CA500093F8C93013F003050DD101210C20FFF725
:10CA6000D7FBA36893F8C92042F0010283F8C920DC
:10CA700083F82A519BE7A36893F81A3153B3A3684C
:10CA800093F81B3133BBA06890F88730252B00F555
:10CA90008D7100F246221BD090F88630A3F1250C50
:10CAA000DCF1000343EB0C0308F005F9A368002256
:10CAB00083F81A2101211420FFF7AAFBA368B3F819
:10CAC0005220A3F81021B3F85620A3F8122170E6E3
:10CAD0000123E9E7A36893F82421012A4CD193F8B4
